{
  "_format": "hh-sol-artifact-1",
  "contractName": "Store",
  "sourceName": "contracts/store.sol",
  "abi": [
    {
      "inputs": [
        {
          "internalType": "string",
          "name": "_sellerName",
          "type": "string"
        },
        {
          "internalType": "uint256",
          "name": "_sellerSalesCount",
          "type": "uint256"
        },
        {
          "internalType": "uint256",
          "name": "_rewardAmount",
          "type": "uint256"
        }
      ],
      "stateMutability": "nonpayable",
      "type": "constructor"
    },
    {
      "anonymous": false,
      "inputs": [
        {
          "indexed": true,
          "internalType": "address",
          "name": "buyerAddress",
          "type": "address"
        },
        {
          "indexed": true,
          "internalType": "address",
          "name": "sellerAddress",
          "type": "address"
        },
        {
          "indexed": true,
          "internalType": "address",
          "name": "commentAddress",
          "type": "address"
        },
        {
          "indexed": false,
          "internalType": "address",
          "name": "sellerId",
          "type": "address"
        },
        {
          "indexed": false,
          "internalType": "uint256",
          "name": "price",
          "type": "uint256"
        },
        {
          "indexed": false,
          "internalType": "uint256",
          "name": "timestamp",
          "type": "uint256"
        }
      ],
      "name": "Reward",
      "type": "event"
    },
    {
      "anonymous": false,
      "inputs": [
        {
          "indexed": true,
          "internalType": "address",
          "name": "buyerAddress",
          "type": "address"
        },
        {
          "indexed": true,
          "internalType": "address",
          "name": "sellerAddress",
          "type": "address"
        },
        {
          "indexed": false,
          "internalType": "uint256",
          "name": "price",
          "type": "uint256"
        },
        {
          "indexed": false,
          "internalType": "uint256",
          "name": "timestamp",
          "type": "uint256"
        }
      ],
      "name": "Sale",
      "type": "event"
    },
    {
      "anonymous": false,
      "inputs": [],
      "name": "Transfer",
      "type": "event"
    },
    {
      "anonymous": false,
      "inputs": [
        {
          "indexed": true,
          "internalType": "address",
          "name": "productAddress",
          "type": "address"
        },
        {
          "indexed": true,
          "internalType": "address",
          "name": "sellerAddress",
          "type": "address"
        }
      ],
      "name": "Upload",
      "type": "event"
    },
    {
      "inputs": [
        {
          "internalType": "uint256",
          "name": "",
          "type": "uint256"
        }
      ],
      "name": "allProducts",
      "outputs": [
        {
          "internalType": "address",
          "name": "productAddress",
          "type": "address"
        },
        {
          "internalType": "address",
          "name": "sellerAddress",
          "type": "address"
        },
        {
          "internalType": "uint256",
          "name": "price",
          "type": "uint256"
        },
        {
          "internalType": "bool",
          "name": "valid",
          "type": "bool"
        }
      ],
      "stateMutability": "view",
      "type": "function"
    },
    {
      "inputs": [
        {
          "internalType": "uint256",
          "name": "",
          "type": "uint256"
        }
      ],
      "name": "allReviews",
      "outputs": [
        {
          "internalType": "address",
          "name": "productAddress",
          "type": "address"
        },
        {
          "internalType": "address",
          "name": "sellerAddress",
          "type": "address"
        },
        {
          "internalType": "address",
          "name": "buyerAddress",
          "type": "address"
        },
        {
          "internalType": "string",
          "name": "reviewText",
          "type": "string"
        },
        {
          "internalType": "uint256",
          "name": "rating",
          "type": "uint256"
        },
        {
          "internalType": "bool",
          "name": "valid",
          "type": "bool"
        }
      ],
      "stateMutability": "view",
      "type": "function"
    },
    {
      "inputs": [
        {
          "internalType": "address",
          "name": "",
          "type": "address"
        }
      ],
      "name": "numOfSales",
      "outputs": [
        {
          "internalType": "uint256",
          "name": "",
          "type": "uint256"
        }
      ],
      "stateMutability": "view",
      "type": "function"
    },
    {
      "inputs": [
        {
          "internalType": "address",
          "name": "productAddress",
          "type": "address"
        }
      ],
      "name": "purchaseProduct",
      "outputs": [
        {
          "internalType": "bool",
          "name": "success",
          "type": "bool"
        }
      ],
      "stateMutability": "payable",
      "type": "function"
    },
    {
      "inputs": [],
      "name": "rewardAmount",
      "outputs": [
        {
          "internalType": "uint256",
          "name": "",
          "type": "uint256"
        }
      ],
      "stateMutability": "view",
      "type": "function"
    },
    {
      "inputs": [],
      "name": "sellerAddress",
      "outputs": [
        {
          "internalType": "address",
          "name": "",
          "type": "address"
        }
      ],
      "stateMutability": "view",
      "type": "function"
    },
    {
      "inputs": [],
      "name": "sellerName",
      "outputs": [
        {
          "internalType": "string",
          "name": "",
          "type": "string"
        }
      ],
      "stateMutability": "view",
      "type": "function"
    },
    {
      "inputs": [],
      "name": "sellerSalesCount",
      "outputs": [
        {
          "internalType": "uint256",
          "name": "",
          "type": "uint256"
        }
      ],
      "stateMutability": "view",
      "type": "function"
    },
    {
      "inputs": [
        {
          "internalType": "address",
          "name": "productAddress",
          "type": "address"
        },
        {
          "internalType": "uint256",
          "name": "price",
          "type": "uint256"
        }
      ],
      "name": "uploadProduct",
      "outputs": [
        {
          "internalType": "bool",
          "name": "success",
          "type": "bool"
        }
      ],
      "stateMutability": "nonpayable",
      "type": "function"
    }
  ],
  "bytecode": "0x60a06040523480156200001157600080fd5b50604051620016cb380380620016cb833981810160405281019062000037919062000262565b3373ffffffffffffffffffffffffffffffffffffffff1660808173ffffffffffffffffffffffffffffffffffffffff168152505082600090816200007c91906200051e565b50816001819055508060028190555050505062000605565b6000604051905090565b600080fd5b600080fd5b600080fd5b600080fd5b6000601f19601f8301169050919050565b7f4e487b7100000000000000000000000000000000000000000000000000000000600052604160045260246000fd5b620000fd82620000b2565b810181811067ffffffffffffffff821117156200011f576200011e620000c3565b5b80604052505050565b60006200013462000094565b9050620001428282620000f2565b919050565b600067ffffffffffffffff821115620001655762000164620000c3565b5b6200017082620000b2565b9050602081019050919050565b60005b838110156200019d57808201518184015260208101905062000180565b60008484015250505050565b6000620001c0620001ba8462000147565b62000128565b905082815260208101848484011115620001df57620001de620000ad565b5b620001ec8482856200017d565b509392505050565b600082601f8301126200020c576200020b620000a8565b5b81516200021e848260208601620001a9565b91505092915050565b6000819050919050565b6200023c8162000227565b81146200024857600080fd5b50565b6000815190506200025c8162000231565b92915050565b6000806000606084860312156200027e576200027d6200009e565b5b600084015167ffffffffffffffff8111156200029f576200029e620000a3565b5b620002ad86828701620001f4565b9350506020620002c0868287016200024b565b9250506040620002d3868287016200024b565b9150509250925092565b600081519050919050565b7f4e487b7100000000000000000000000000000000000000000000000000000000600052602260045260246000fd5b600060028204905060018216806200033057607f821691505b602082108103620003465762000345620002e8565b5b50919050565b60008190508160005260206000209050919050565b60006020601f8301049050919050565b600082821b905092915050565b600060088302620003b07fffffffffffffffffffffffffffffffffffffffffffffffffffffffffffffffff8262000371565b620003bc868362000371565b95508019841693508086168417925050509392505050565b6000819050919050565b6000620003ff620003f9620003f38462000227565b620003d4565b62000227565b9050919050565b6000819050919050565b6200041b83620003de565b620004336200042a8262000406565b8484546200037e565b825550505050565b600090565b6200044a6200043b565b6200045781848462000410565b505050565b5b818110156200047f576200047360008262000440565b6001810190506200045d565b5050565b601f821115620004ce5762000498816200034c565b620004a38462000361565b81016020851015620004b3578190505b620004cb620004c28562000361565b8301826200045c565b50505b505050565b600082821c905092915050565b6000620004f360001984600802620004d3565b1980831691505092915050565b60006200050e8383620004e0565b9150826002028217905092915050565b6200052982620002dd565b67ffffffffffffffff811115620005455762000544620000c3565b5b62000551825462000317565b6200055e82828562000483565b600060209050601f83116001811462000596576000841562000581578287015190505b6200058d858262000500565b865550620005fd565b601f198416620005a6866200034c565b60005b82811015620005d057848901518255600182019150602085019450602081019050620005a9565b86831015620005f05784890151620005ec601f891682620004e0565b8355505b6001600288020188555050505b505050505050565b6080516110a36200062860003960008181610265015261089301526110a36000f3fe6080604052600436106100865760003560e01c8063c0e5ec4511610059578063c0e5ec451461014e578063cc7ce0e01461018b578063cfaaef56146101b6578063f7b2a7be146101f6578063ffa590ae1461022157610086565b80633d9b2ae61461008b5780636688c7c6146100b6578063a207d6c2146100e1578063aac907b01461011e575b600080fd5b34801561009757600080fd5b506100a0610263565b6040516100ad9190610b59565b60405180910390f35b3480156100c257600080fd5b506100cb610287565b6040516100d89190610c04565b60405180910390f35b3480156100ed57600080fd5b5061010860048036038101906101039190610c8d565b610315565b6040516101159190610ce8565b60405180910390f35b61013860048036038101906101339190610d03565b610641565b6040516101459190610ce8565b60405180910390f35b34801561015a57600080fd5b5061017560048036038101906101709190610d03565b610926565b6040516101829190610d3f565b60405180910390f35b34801561019757600080fd5b506101a061093e565b6040516101ad9190610d3f565b60405180910390f35b3480156101c257600080fd5b506101dd60048036038101906101d89190610d5a565b610944565b6040516101ed9493929190610d87565b60405180910390f35b34801561020257600080fd5b5061020b6109d1565b6040516102189190610d3f565b60405180910390f35b34801561022d57600080fd5b5061024860048036038101906102439190610d5a565b6109d7565b60405161025a96959493929190610dcc565b60405180910390f35b7f000000000000000000000000000000000000000000000000000000000000000081565b6000805461029490610e63565b80601f01602080910402602001604051908101604052809291908181526020018280546102c090610e63565b801561030d5780601f106102e25761010080835404028352916020019161030d565b820191906000526020600020905b8154815290600101906020018083116102f057829003601f168201915b505050505081565b6000600460008473ffffffffffffffffffffffffffffffffffffffff1673ffffffffffffffffffffffffffffffffffffffff16815260200190815260200160002060030160009054906101000a900460ff16156103a7576040517f08c379a000000000000000000000000000000000000000000000000000000000815260040161039e90610ee0565b60405180910390fd5b600060405180608001604052808573ffffffffffffffffffffffffffffffffffffffff1681526020013373ffffffffffffffffffffffffffffffffffffffff16815260200184815260200160011515815250905080600460008673ffffffffffffffffffffffffffffffffffffffff1673ffffffffffffffffffffffffffffffffffffffff16815260200190815260200160002060008201518160000160006101000a81548173ffffffffffffffffffffffffffffffffffffffff021916908373ffffffffffffffffffffffffffffffffffffffff16021790555060208201518160010160006101000a81548173ffffffffffffffffffffffffffffffffffffffff021916908373ffffffffffffffffffffffffffffffffffffffff1602179055506040820151816002015560608201518160030160006101000a81548160ff021916908315150217905550905050600581908060018154018082558091505060019003906000526020600020906004020160009091909190915060008201518160000160006101000a81548173ffffffffffffffffffffffffffffffffffffffff021916908373ffffffffffffffffffffffffffffffffffffffff16021790555060208201518160010160006101000a81548173ffffffffffffffffffffffffffffffffffffffff021916908373ffffffffffffffffffffffffffffffffffffffff1602179055506040820151816002015560608201518160030160006101000a81548160ff02191690831515021790555050503373ffffffffffffffffffffffffffffffffffffffff168473ffffffffffffffffffffffffffffffffffffffff167f5dc36464908776d8e615e31a4bbde68d9332599a2ddbd385d22e608d5980e05060405160405180910390a3600191505092915050565b6000600460008373ffffffffffffffffffffffffffffffffffffffff1673ffffffffffffffffffffffffffffffffffffffff16815260200190815260200160002060030160009054906101000a900460ff166106d2576040517f08c379a00000000000000000000000000000000000000000000000000000000081526004016106c990610f4c565b60405180910390fd5b60003411610715576040517f08c379a000000000000000000000000000000000000000000000000000000000815260040161070c90610fb8565b60405180910390fd5b6000600460008473ffffffffffffffffffffffffffffffffffffffff1673ffffffffffffffffffffffffffffffffffffffff1681526020019081526020016000206040518060800160405290816000820160009054906101000a900473ffffffffffffffffffffffffffffffffffffffff1673ffffffffffffffffffffffffffffffffffffffff1673ffffffffffffffffffffffffffffffffffffffff1681526020016001820160009054906101000a900473ffffffffffffffffffffffffffffffffffffffff1673ffffffffffffffffffffffffffffffffffffffff1673ffffffffffffffffffffffffffffffffffffffff168152602001600282015481526020016003820160009054906101000a900460ff161515151581525050905080604001513373ffffffffffffffffffffffffffffffffffffffff163110610891576040517f08c379a000000000000000000000000000000000000000000000000000000000815260040161088890611024565b60405180910390fd5b7f000000000000000000000000000000000000000000000000000000000000000073ffffffffffffffffffffffffffffffffffffffff163373ffffffffffffffffffffffffffffffffffffffff167f681ddc67ea8796d2489979f5fc2ea2eb0f2d44ff3f11f061a191928a1f3d9a06836040015142604051610914929190611044565b60405180910390a36001915050919050565b60036020528060005260406000206000915090505481565b60015481565b6005818154811061095457600080fd5b90600052602060002090600402016000915090508060000160009054906101000a900473ffffffffffffffffffffffffffffffffffffffff16908060010160009054906101000a900473ffffffffffffffffffffffffffffffffffffffff16908060020154908060030160009054906101000a900460ff16905084565b60025481565b600681815481106109e757600080fd5b90600052602060002090600602016000915090508060000160009054906101000a900473ffffffffffffffffffffffffffffffffffffffff16908060010160009054906101000a900473ffffffffffffffffffffffffffffffffffffffff16908060020160009054906101000a900473ffffffffffffffffffffffffffffffffffffffff1690806003018054610a7c90610e63565b80601f0160208091040260200160405190810160405280929190818152602001828054610aa890610e63565b8015610af55780601f10610aca57610100808354040283529160200191610af5565b820191906000526020600020905b815481529060010190602001808311610ad857829003601f168201915b5050505050908060040154908060050160009054906101000a900460ff16905086565b600073ffffffffffffffffffffffffffffffffffffffff82169050919050565b6000610b4382610b18565b9050919050565b610b5381610b38565b82525050565b6000602082019050610b6e6000830184610b4a565b92915050565b600081519050919050565b600082825260208201905092915050565b60005b83811015610bae578082015181840152602081019050610b93565b60008484015250505050565b6000601f19601f8301169050919050565b6000610bd682610b74565b610be08185610b7f565b9350610bf0818560208601610b90565b610bf981610bba565b840191505092915050565b60006020820190508181036000830152610c1e8184610bcb565b905092915050565b600080fd5b610c3481610b38565b8114610c3f57600080fd5b50565b600081359050610c5181610c2b565b92915050565b6000819050919050565b610c6a81610c57565b8114610c7557600080fd5b50565b600081359050610c8781610c61565b92915050565b60008060408385031215610ca457610ca3610c26565b5b6000610cb285828601610c42565b9250506020610cc385828601610c78565b9150509250929050565b60008115159050919050565b610ce281610ccd565b82525050565b6000602082019050610cfd6000830184610cd9565b92915050565b600060208284031215610d1957610d18610c26565b5b6000610d2784828501610c42565b91505092915050565b610d3981610c57565b82525050565b6000602082019050610d546000830184610d30565b92915050565b600060208284031215610d7057610d6f610c26565b5b6000610d7e84828501610c78565b91505092915050565b6000608082019050610d9c6000830187610b4a565b610da96020830186610b4a565b610db66040830185610d30565b610dc36060830184610cd9565b95945050505050565b600060c082019050610de16000830189610b4a565b610dee6020830188610b4a565b610dfb6040830187610b4a565b8181036060830152610e0d8186610bcb565b9050610e1c6080830185610d30565b610e2960a0830184610cd9565b979650505050505050565b7f4e487b7100000000000000000000000000000000000000000000000000000000600052602260045260246000fd5b60006002820490506001821680610e7b57607f821691505b602082108103610e8e57610e8d610e34565b5b50919050565b7f50726f6475637420616c72656164792075706c6f61646564206265666f726521600082015250565b6000610eca602083610b7f565b9150610ed582610e94565b602082019050919050565b60006020820190508181036000830152610ef981610ebd565b9050919050565b7f50726f6475637420646f6573206e6f7420657869737421000000000000000000600082015250565b6000610f36601783610b7f565b9150610f4182610f00565b602082019050919050565b60006020820190508181036000830152610f6581610f29565b9050919050565b7f4574686572732063616e6e6f74206265207a65726f2100000000000000000000600082015250565b6000610fa2601683610b7f565b9150610fad82610f6c565b602082019050919050565b60006020820190508181036000830152610fd181610f95565b9050919050565b7f496e73756666696369656e742062616c616e6365210000000000000000000000600082015250565b600061100e601583610b7f565b915061101982610fd8565b602082019050919050565b6000602082019050818103600083015261103d81611001565b9050919050565b60006040820190506110596000830185610d30565b6110666020830184610d30565b939250505056fea2646970667358221220ae29e28d811ae95ee7270eaac93fb8bd3ac636ec0490526c35bd6e8a8015e27f64736f6c63430008100033",
  "linkReferences": {},
  "deployedLinkReferences": {}
}