{
  "_format": "hh-sol-artifact-1",
  "contractName": "Store",
  "sourceName": "contracts/store.sol",
  "abi": [
    {
      "inputs": [
        {
          "internalType": "string",
          "name": "_name",
          "type": "string"
        }
      ],
      "stateMutability": "nonpayable",
      "type": "constructor"
    },
    {
      "inputs": [
        {
          "internalType": "string",
          "name": "_name",
          "type": "string"
        }
      ],
      "name": "changeName",
      "outputs": [],
      "stateMutability": "nonpayable",
      "type": "function"
    },
    {
      "inputs": [],
      "name": "getName",
      "outputs": [
        {
          "internalType": "string",
          "name": "",
          "type": "string"
        }
      ],
      "stateMutability": "view",
      "type": "function"
    }
  ],
  "bytecode": "0x60806040523480156200001157600080fd5b5060405162000c9438038062000c9483398181016040528101906200003791906200021e565b62000053674cbfa783fb2455ac60c01b6200008860201b60201c565b6200006f673edecee46fd70f4360c01b6200008860201b60201c565b8060009081620000809190620004ba565b5050620005a1565b50565b6000604051905090565b600080fd5b600080fd5b600080fd5b600080fd5b6000601f19601f8301169050919050565b7f4e487b7100000000000000000000000000000000000000000000000000000000600052604160045260246000fd5b620000f482620000a9565b810181811067ffffffffffffffff82111715620001165762000115620000ba565b5b80604052505050565b60006200012b6200008b565b9050620001398282620000e9565b919050565b600067ffffffffffffffff8211156200015c576200015b620000ba565b5b6200016782620000a9565b9050602081019050919050565b60005b838110156200019457808201518184015260208101905062000177565b60008484015250505050565b6000620001b7620001b1846200013e565b6200011f565b905082815260208101848484011115620001d657620001d5620000a4565b5b620001e384828562000174565b509392505050565b600082601f8301126200020357620002026200009f565b5b815162000215848260208601620001a0565b91505092915050565b60006020828403121562000237576200023662000095565b5b600082015167ffffffffffffffff8111156200025857620002576200009a565b5b6200026684828501620001eb565b91505092915050565b600081519050919050565b7f4e487b7100000000000000000000000000000000000000000000000000000000600052602260045260246000fd5b60006002820490506001821680620002c257607f821691505b602082108103620002d857620002d76200027a565b5b50919050565b60008190508160005260206000209050919050565b60006020601f8301049050919050565b600082821b905092915050565b600060088302620003427fffffffffffffffffffffffffffffffffffffffffffffffffffffffffffffffff8262000303565b6200034e868362000303565b95508019841693508086168417925050509392505050565b6000819050919050565b6000819050919050565b60006200039b620003956200038f8462000366565b62000370565b62000366565b9050919050565b6000819050919050565b620003b7836200037a565b620003cf620003c682620003a2565b84845462000310565b825550505050565b600090565b620003e6620003d7565b620003f3818484620003ac565b505050565b5b818110156200041b576200040f600082620003dc565b600181019050620003f9565b5050565b601f8211156200046a576200043481620002de565b6200043f84620002f3565b810160208510156200044f578190505b620004676200045e85620002f3565b830182620003f8565b50505b505050565b600082821c905092915050565b60006200048f600019846008026200046f565b1980831691505092915050565b6000620004aa83836200047c565b9150826002028217905092915050565b620004c5826200026f565b67ffffffffffffffff811115620004e157620004e0620000ba565b5b620004ed8254620002a9565b620004fa8282856200041f565b600060209050601f8311600181146200053257600084156200051d578287015190505b6200052985826200049c565b86555062000599565b601f1984166200054286620002de565b60005b828110156200056c5784890151825560018201915060208501945060208101905062000545565b868310156200058c578489015162000588601f8916826200047c565b8355505b6001600288020188555050505b505050505050565b6106e380620005b16000396000f3fe608060405234801561001057600080fd5b50600436106100365760003560e01c806317d7de7c1461003b5780635353a2d814610059575b600080fd5b610043610075565b6040516100509190610211565b60405180910390f35b610073600480360381019061006e919061037c565b610143565b005b606061008b6781be7f1b358d52e060c01b61017e565b61009f675117c5760c9f1b4560c01b61017e565b6100b36728b02e474001774460c01b61017e565b600080546100c0906103f4565b80601f01602080910402602001604051908101604052809291908181526020018280546100ec906103f4565b80156101395780601f1061010e57610100808354040283529160200191610139565b820191906000526020600020905b81548152906001019060200180831161011c57829003601f168201915b5050505050905090565b610157672884529b05377ae360c01b61017e565b61016b678336e6afbda6d31560c01b61017e565b806000908161017a91906105db565b5050565b50565b600081519050919050565b600082825260208201905092915050565b60005b838110156101bb5780820151818401526020810190506101a0565b60008484015250505050565b6000601f19601f8301169050919050565b60006101e382610181565b6101ed818561018c565b93506101fd81856020860161019d565b610206816101c7565b840191505092915050565b6000602082019050818103600083015261022b81846101d8565b905092915050565b6000604051905090565b600080fd5b600080fd5b600080fd5b600080fd5b7f4e487b7100000000000000000000000000000000000000000000000000000000600052604160045260246000fd5b610289826101c7565b810181811067ffffffffffffffff821117156102a8576102a7610251565b5b80604052505050565b60006102bb610233565b90506102c78282610280565b919050565b600067ffffffffffffffff8211156102e7576102e6610251565b5b6102f0826101c7565b9050602081019050919050565b82818337600083830152505050565b600061031f61031a846102cc565b6102b1565b90508281526020810184848401111561033b5761033a61024c565b5b6103468482856102fd565b509392505050565b600082601f83011261036357610362610247565b5b813561037384826020860161030c565b91505092915050565b6000602082840312156103925761039161023d565b5b600082013567ffffffffffffffff8111156103b0576103af610242565b5b6103bc8482850161034e565b91505092915050565b7f4e487b7100000000000000000000000000000000000000000000000000000000600052602260045260246000fd5b6000600282049050600182168061040c57607f821691505b60208210810361041f5761041e6103c5565b5b50919050565b60008190508160005260206000209050919050565b60006020601f8301049050919050565b600082821b905092915050565b6000600883026104877fffffffffffffffffffffffffffffffffffffffffffffffffffffffffffffffff8261044a565b610491868361044a565b95508019841693508086168417925050509392505050565b6000819050919050565b6000819050919050565b60006104d86104d36104ce846104a9565b6104b3565b6104a9565b9050919050565b6000819050919050565b6104f2836104bd565b6105066104fe826104df565b848454610457565b825550505050565b600090565b61051b61050e565b6105268184846104e9565b505050565b5b8181101561054a5761053f600082610513565b60018101905061052c565b5050565b601f82111561058f5761056081610425565b6105698461043a565b81016020851015610578578190505b61058c6105848561043a565b83018261052b565b50505b505050565b600082821c905092915050565b60006105b260001984600802610594565b1980831691505092915050565b60006105cb83836105a1565b9150826002028217905092915050565b6105e482610181565b67ffffffffffffffff8111156105fd576105fc610251565b5b61060782546103f4565b61061282828561054e565b600060209050601f8311600181146106455760008415610633578287015190505b61063d85826105bf565b8655506106a5565b601f19841661065386610425565b60005b8281101561067b57848901518255600182019150602085019450602081019050610656565b868310156106985784890151610694601f8916826105a1565b8355505b6001600288020188555050505b50505050505056fea2646970667358221220fda85eac3ef89e87d224d0613d6490750a20fe367723599894e0b07ec5c4965164736f6c63430008100033",
  "linkReferences": {},
  "deployedLinkReferences": {}
}