{
  "_format": "hh-sol-artifact-1",
  "contractName": "Marketplace",
  "sourceName": "contracts/Marketplace.sol",
  "abi": [
    {
      "inputs": [],
      "stateMutability": "nonpayable",
      "type": "constructor"
    },
    {
      "anonymous": false,
      "inputs": [
        {
          "indexed": false,
          "internalType": "uint256",
          "name": "productID",
          "type": "uint256"
        },
        {
          "indexed": false,
          "internalType": "uint256",
          "name": "reviewID",
          "type": "uint256"
        },
        {
          "indexed": true,
          "internalType": "address",
          "name": "buyerAddress",
          "type": "address"
        },
        {
          "indexed": false,
          "internalType": "uint256",
          "name": "rating",
          "type": "uint256"
        },
        {
          "indexed": false,
          "internalType": "uint256",
          "name": "timestamp",
          "type": "uint256"
        }
      ],
      "name": "BuyerReview",
      "type": "event"
    },
    {
      "anonymous": false,
      "inputs": [
        {
          "indexed": false,
          "internalType": "address",
          "name": "buyerAddress",
          "type": "address"
        },
        {
          "indexed": false,
          "internalType": "uint256",
          "name": "buyerRepScore",
          "type": "uint256"
        }
      ],
      "name": "CreateBuyer",
      "type": "event"
    },
    {
      "anonymous": false,
      "inputs": [
        {
          "indexed": false,
          "internalType": "address",
          "name": "sellerAddress",
          "type": "address"
        },
        {
          "indexed": false,
          "internalType": "uint256",
          "name": "sellerID",
          "type": "uint256"
        },
        {
          "indexed": false,
          "internalType": "uint256",
          "name": "sellerRepScore",
          "type": "uint256"
        },
        {
          "indexed": false,
          "internalType": "uint256",
          "name": "rewardAmount",
          "type": "uint256"
        }
      ],
      "name": "CreateSeller",
      "type": "event"
    },
    {
      "anonymous": false,
      "inputs": [
        {
          "indexed": true,
          "internalType": "address",
          "name": "buyerAddress",
          "type": "address"
        },
        {
          "indexed": true,
          "internalType": "address",
          "name": "sellerAddress",
          "type": "address"
        },
        {
          "indexed": false,
          "internalType": "uint256",
          "name": "price",
          "type": "uint256"
        },
        {
          "indexed": false,
          "internalType": "uint256",
          "name": "timestamp",
          "type": "uint256"
        }
      ],
      "name": "ProductSale",
      "type": "event"
    },
    {
      "anonymous": false,
      "inputs": [
        {
          "indexed": true,
          "internalType": "address",
          "name": "buyerAddress",
          "type": "address"
        },
        {
          "indexed": true,
          "internalType": "address",
          "name": "sellerAddress",
          "type": "address"
        },
        {
          "indexed": false,
          "internalType": "uint256",
          "name": "reviewID",
          "type": "uint256"
        },
        {
          "indexed": false,
          "internalType": "uint256",
          "name": "price",
          "type": "uint256"
        },
        {
          "indexed": false,
          "internalType": "uint256",
          "name": "timestamp",
          "type": "uint256"
        }
      ],
      "name": "Reward",
      "type": "event"
    },
    {
      "anonymous": false,
      "inputs": [
        {
          "indexed": false,
          "internalType": "uint256",
          "name": "productID",
          "type": "uint256"
        },
        {
          "indexed": false,
          "internalType": "string",
          "name": "productName",
          "type": "string"
        },
        {
          "indexed": true,
          "internalType": "address",
          "name": "sellerAddress",
          "type": "address"
        }
      ],
      "name": "Upload",
      "type": "event"
    },
    {
      "inputs": [
        {
          "internalType": "uint256",
          "name": "",
          "type": "uint256"
        }
      ],
      "name": "allReviews",
      "outputs": [
        {
          "internalType": "uint256",
          "name": "reviewID",
          "type": "uint256"
        },
        {
          "internalType": "uint256",
          "name": "productID",
          "type": "uint256"
        },
        {
          "internalType": "address",
          "name": "sellerAddress",
          "type": "address"
        },
        {
          "internalType": "address",
          "name": "buyerAddress",
          "type": "address"
        },
        {
          "internalType": "uint256",
          "name": "rating",
          "type": "uint256"
        },
        {
          "internalType": "bool",
          "name": "valid",
          "type": "bool"
        }
      ],
      "stateMutability": "view",
      "type": "function"
    },
    {
      "inputs": [
        {
          "internalType": "uint256",
          "name": "",
          "type": "uint256"
        }
      ],
      "name": "allSales",
      "outputs": [
        {
          "internalType": "address",
          "name": "saleAddress",
          "type": "address"
        },
        {
          "internalType": "address",
          "name": "productID",
          "type": "address"
        },
        {
          "internalType": "address",
          "name": "sellerAddress",
          "type": "address"
        },
        {
          "internalType": "address",
          "name": "buyerAddress",
          "type": "address"
        },
        {
          "internalType": "uint256",
          "name": "price",
          "type": "uint256"
        },
        {
          "internalType": "uint256",
          "name": "timestamp",
          "type": "uint256"
        },
        {
          "internalType": "bool",
          "name": "valid",
          "type": "bool"
        }
      ],
      "stateMutability": "view",
      "type": "function"
    },
    {
      "inputs": [
        {
          "internalType": "address",
          "name": "",
          "type": "address"
        }
      ],
      "name": "allSellers",
      "outputs": [
        {
          "internalType": "address",
          "name": "sellerAddress",
          "type": "address"
        },
        {
          "internalType": "uint256",
          "name": "sellerID",
          "type": "uint256"
        },
        {
          "internalType": "uint256",
          "name": "sellerRepScore",
          "type": "uint256"
        },
        {
          "internalType": "uint256",
          "name": "rewardAmount",
          "type": "uint256"
        },
        {
          "internalType": "uint256",
          "name": "sellerRevenue",
          "type": "uint256"
        },
        {
          "internalType": "bool",
          "name": "valid",
          "type": "bool"
        }
      ],
      "stateMutability": "view",
      "type": "function"
    },
    {
      "inputs": [
        {
          "internalType": "uint256",
          "name": "",
          "type": "uint256"
        }
      ],
      "name": "allSellersArr",
      "outputs": [
        {
          "internalType": "address",
          "name": "sellerAddress",
          "type": "address"
        },
        {
          "internalType": "uint256",
          "name": "sellerID",
          "type": "uint256"
        },
        {
          "internalType": "uint256",
          "name": "sellerRepScore",
          "type": "uint256"
        },
        {
          "internalType": "uint256",
          "name": "rewardAmount",
          "type": "uint256"
        },
        {
          "internalType": "uint256",
          "name": "sellerRevenue",
          "type": "uint256"
        },
        {
          "internalType": "bool",
          "name": "valid",
          "type": "bool"
        }
      ],
      "stateMutability": "view",
      "type": "function"
    },
    {
      "inputs": [
        {
          "internalType": "uint256",
          "name": "buyerRating",
          "type": "uint256"
        },
        {
          "internalType": "uint256",
          "name": "productID",
          "type": "uint256"
        },
        {
          "internalType": "address",
          "name": "sellerAddress",
          "type": "address"
        }
      ],
      "name": "buyerReview",
      "outputs": [
        {
          "internalType": "bool",
          "name": "success",
          "type": "bool"
        }
      ],
      "stateMutability": "nonpayable",
      "type": "function"
    },
    {
      "inputs": [],
      "name": "buyerWithdraw",
      "outputs": [
        {
          "internalType": "bool",
          "name": "sucess",
          "type": "bool"
        }
      ],
      "stateMutability": "payable",
      "type": "function"
    },
    {
      "inputs": [],
      "name": "countOfSellers",
      "outputs": [
        {
          "internalType": "uint256",
          "name": "",
          "type": "uint256"
        }
      ],
      "stateMutability": "view",
      "type": "function"
    },
    {
      "inputs": [
        {
          "internalType": "uint256",
          "name": "buyerRepScore",
          "type": "uint256"
        }
      ],
      "name": "createBuyer",
      "outputs": [
        {
          "internalType": "bool",
          "name": "success",
          "type": "bool"
        }
      ],
      "stateMutability": "nonpayable",
      "type": "function"
    },
    {
      "inputs": [
        {
          "internalType": "uint256",
          "name": "sellerID",
          "type": "uint256"
        },
        {
          "internalType": "uint256",
          "name": "sellerRepScore",
          "type": "uint256"
        },
        {
          "internalType": "uint256",
          "name": "rewardAmount",
          "type": "uint256"
        },
        {
          "internalType": "uint256",
          "name": "sellerRevenue",
          "type": "uint256"
        }
      ],
      "name": "createSeller",
      "outputs": [
        {
          "internalType": "bool",
          "name": "success",
          "type": "bool"
        }
      ],
      "stateMutability": "nonpayable",
      "type": "function"
    },
    {
      "inputs": [],
      "name": "getSellers",
      "outputs": [
        {
          "internalType": "uint256",
          "name": "",
          "type": "uint256"
        }
      ],
      "stateMutability": "nonpayable",
      "type": "function"
    },
    {
      "inputs": [
        {
          "internalType": "address",
          "name": "",
          "type": "address"
        }
      ],
      "name": "numOfSales",
      "outputs": [
        {
          "internalType": "uint256",
          "name": "",
          "type": "uint256"
        }
      ],
      "stateMutability": "view",
      "type": "function"
    },
    {
      "inputs": [
        {
          "internalType": "uint256",
          "name": "productID",
          "type": "uint256"
        },
        {
          "internalType": "address",
          "name": "sellerAddress",
          "type": "address"
        }
      ],
      "name": "purchaseProduct",
      "outputs": [
        {
          "internalType": "bool",
          "name": "success",
          "type": "bool"
        }
      ],
      "stateMutability": "payable",
      "type": "function"
    },
    {
      "inputs": [
        {
          "internalType": "uint256",
          "name": "productID",
          "type": "uint256"
        },
        {
          "internalType": "address",
          "name": "buyerAddress",
          "type": "address"
        },
        {
          "internalType": "uint256",
          "name": "reviewID",
          "type": "uint256"
        }
      ],
      "name": "reward",
      "outputs": [
        {
          "internalType": "bool",
          "name": "success",
          "type": "bool"
        }
      ],
      "stateMutability": "payable",
      "type": "function"
    },
    {
      "inputs": [],
      "name": "sellerWithdraw",
      "outputs": [
        {
          "internalType": "bool",
          "name": "sucess",
          "type": "bool"
        }
      ],
      "stateMutability": "payable",
      "type": "function"
    },
    {
      "inputs": [
        {
          "internalType": "uint256",
          "name": "productID",
          "type": "uint256"
        },
        {
          "internalType": "string",
          "name": "productName",
          "type": "string"
        },
        {
          "internalType": "uint256",
          "name": "price",
          "type": "uint256"
        }
      ],
      "name": "uploadProduct",
      "outputs": [
        {
          "internalType": "bool",
          "name": "success",
          "type": "bool"
        }
      ],
      "stateMutability": "nonpayable",
      "type": "function"
    }
  ],
  "bytecode": "0x608060405234801561001057600080fd5b5060008081905550612893806100276000396000f3fe6080604052600436106100e85760003560e01c8063750d84e01161008a578063c0e5ec4511610059578063c0e5ec451461032d578063de7a2dbf1461036a578063f881f000146103a7578063ffa590ae146103d7576100e8565b8063750d84e0146102655780637cc947d0146102a25780637ee454cb146102c0578063b0c0fd8a146102eb576100e8565b80634a5afb60116100c65780634a5afb601461018a57806354cba13c146101c75780635b30b4281461020457806366af746b14610247576100e8565b80632c4464e4146100ed578063335f74001461012f5780633ffcf8d01461015a575b600080fd5b3480156100f957600080fd5b50610114600480360381019061010f9190611ac0565b610419565b60405161012696959493929190611b30565b60405180910390f35b34801561013b57600080fd5b50610144610482565b6040516101519190611b91565b60405180910390f35b610174600480360381019061016f9190611bd8565b610488565b6040516101819190611c2b565b60405180910390f35b34801561019657600080fd5b506101b160048036038101906101ac9190611c46565b61089e565b6040516101be9190611c2b565b60405180910390f35b3480156101d357600080fd5b506101ee60048036038101906101e99190611c99565b610c67565b6040516101fb9190611c2b565b60405180910390f35b34801561021057600080fd5b5061022b60048036038101906102269190611c99565b610e0b565b60405161023e9796959493929190611cc6565b60405180910390f35b61024f610eea565b60405161025c9190611c2b565b60405180910390f35b34801561027157600080fd5b5061028c60048036038101906102879190611d35565b610fc9565b6040516102999190611c2b565b60405180910390f35b6102aa6111f3565b6040516102b79190611c2b565b60405180910390f35b3480156102cc57600080fd5b506102d56112d2565b6040516102e29190611b91565b60405180910390f35b3480156102f757600080fd5b50610312600480360381019061030d9190611c99565b611300565b60405161032496959493929190611b30565b60405180910390f35b34801561033957600080fd5b50610354600480360381019061034f9190611ac0565b611379565b6040516103619190611b91565b60405180910390f35b34801561037657600080fd5b50610391600480360381019061038c9190611ee2565b611391565b60405161039e9190611c2b565b60405180910390f35b6103c160048036038101906103bc9190611f51565b611646565b6040516103ce9190611c2b565b60405180910390f35b3480156103e357600080fd5b506103fe60048036038101906103f99190611c99565b611912565b60405161041096959493929190611f91565b60405180910390f35b60016020528060005260406000206000915090508060000160009054906101000a900473ffffffffffffffffffffffffffffffffffffffff16908060010154908060020154908060030154908060040154908060050160009054906101000a900460ff16905086565b60005481565b6000600160003373ffffffffffffffffffffffffffffffffffffffff1673ffffffffffffffffffffffffffffffffffffffff16815260200190815260200160002060060184815481106104de576104dd611ff2565b5b906000526020600020906008020160040160009054906101000a900460ff1661053c576040517f08c379a00000000000000000000000000000000000000000000000000000000081526004016105339061207e565b60405180910390fd5b6000600160003373ffffffffffffffffffffffffffffffffffffffff1673ffffffffffffffffffffffffffffffffffffffff168152602001908152602001600020600601858154811061059257610591611ff2565b5b90600052602060002090600802019050600115158160060160008673ffffffffffffffffffffffffffffffffffffffff1673ffffffffffffffffffffffffffffffffffffffff16815260200190815260200160002060009054906101000a900460ff16151514610637576040517f08c379a000000000000000000000000000000000000000000000000000000000815260040161062e90612110565b60405180910390fd5b8060070160008573ffffffffffffffffffffffffffffffffffffffff1673ffffffffffffffffffffffffffffffffffffffff16815260200190815260200160002060050160009054906101000a900460ff166106c8576040517f08c379a00000000000000000000000000000000000000000000000000000000081526004016106bf906121a2565b60405180910390fd5b600160003373ffffffffffffffffffffffffffffffffffffffff1673ffffffffffffffffffffffffffffffffffffffff16815260200190815260200160002060030154341461074c576040517f08c379a000000000000000000000000000000000000000000000000000000000815260040161074390612234565b60405180910390fd5b600160003373ffffffffffffffffffffffffffffffffffffffff1673ffffffffffffffffffffffffffffffffffffffff16815260200190815260200160002060030154600260008673ffffffffffffffffffffffffffffffffffffffff1673ffffffffffffffffffffffffffffffffffffffff16815260200190815260200160002060020160008282546107e09190612283565b925050819055503373ffffffffffffffffffffffffffffffffffffffff168473ffffffffffffffffffffffffffffffffffffffff167f03e2fbb2b92f9e0c79b9743877ad3b4ed3fd2d8df69ddba7a376839ed2bc2ff785600160003373ffffffffffffffffffffffffffffffffffffffff1673ffffffffffffffffffffffffffffffffffffffff168152602001908152602001600020600301544260405161088a939291906122d9565b60405180910390a360019150509392505050565b6000600160008373ffffffffffffffffffffffffffffffffffffffff1673ffffffffffffffffffffffffffffffffffffffff16815260200190815260200160002060060183815481106108f4576108f3611ff2565b5b906000526020600020906008020160040160009054906101000a900460ff16610952576040517f08c379a00000000000000000000000000000000000000000000000000000000081526004016109499061207e565b60405180910390fd5b6000600160008473ffffffffffffffffffffffffffffffffffffffff1673ffffffffffffffffffffffffffffffffffffffff16815260200190815260200160002060060184815481106109a8576109a7611ff2565b5b90600052602060002090600802019050600115158160060160003373ffffffffffffffffffffffffffffffffffffffff1673ffffffffffffffffffffffffffffffffffffffff16815260200190815260200160002060009054906101000a900460ff16151514610a4d576040517f08c379a0000000000000000000000000000000000000000000000000000000008152600401610a4490612382565b60405180910390fd5b806005016000815480929190610a62906123a2565b919050555060008160050154905060006040518060c001604052808381526020018781526020018460020160009054906101000a900473ffffffffffffffffffffffffffffffffffffffff1673ffffffffffffffffffffffffffffffffffffffff1681526020013373ffffffffffffffffffffffffffffffffffffffff168152602001888152602001600115158152509050808360070160003373ffffffffffffffffffffffffffffffffffffffff1673ffffffffffffffffffffffffffffffffffffffff168152602001908152602001600020600082015181600001556020820151816001015560408201518160020160006101000a81548173ffffffffffffffffffffffffffffffffffffffff021916908373ffffffffffffffffffffffffffffffffffffffff16021790555060608201518160030160006101000a81548173ffffffffffffffffffffffffffffffffffffffff021916908373ffffffffffffffffffffffffffffffffffffffff1602179055506080820151816004015560a08201518160050160006101000a81548160ff0219169083151502179055509050503373ffffffffffffffffffffffffffffffffffffffff167fb507ae951f9eee4d7fc53bb33d873b25774b20d433a288ff97810536a2607f3c87848a42604051610c5194939291906123eb565b60405180910390a2600193505050509392505050565b6000600260003373ffffffffffffffffffffffffffffffffffffffff1673ffffffffffffffffffffffffffffffffffffffff16815260200190815260200160002060030160009054906101000a900460ff1615610cf9576040517f08c379a0000000000000000000000000000000000000000000000000000000008152600401610cf0906124a2565b60405180910390fd5b600260003373ffffffffffffffffffffffffffffffffffffffff1673ffffffffffffffffffffffffffffffffffffffff168152602001908152602001600020506000600260003373ffffffffffffffffffffffffffffffffffffffff1673ffffffffffffffffffffffffffffffffffffffff1681526020019081526020016000209050338160000160006101000a81548173ffffffffffffffffffffffffffffffffffffffff021916908373ffffffffffffffffffffffffffffffffffffffff1602179055508281600101819055507fb8c73942ad86cc7c108a4efc1b1af4d7eebca0d13df5c6478757dfe1641e45d33384604051610df99291906124c2565b60405180910390a16001915050919050565b60058181548110610e1b57600080fd5b90600052602060002090600702016000915090508060000160009054906101000a900473ffffffffffffffffffffffffffffffffffffffff16908060010160009054906101000a900473ffffffffffffffffffffffffffffffffffffffff16908060020160009054906101000a900473ffffffffffffffffffffffffffffffffffffffff16908060030160009054906101000a900473ffffffffffffffffffffffffffffffffffffffff16908060040154908060050154908060060160009054906101000a900460ff16905087565b600080600160003373ffffffffffffffffffffffffffffffffffffffff1673ffffffffffffffffffffffffffffffffffffffff1681526020019081526020016000206004015490503373ffffffffffffffffffffffffffffffffffffffff166108fc829081150290604051600060405180830381858888f19350505050158015610f78573d6000803e3d6000fd5b506000600160003373ffffffffffffffffffffffffffffffffffffffff1673ffffffffffffffffffffffffffffffffffffffff16815260200190815260200160002060040181905550600191505090565b6000600160003373ffffffffffffffffffffffffffffffffffffffff1673ffffffffffffffffffffffffffffffffffffffff16815260200190815260200160002060050160009054906101000a900460ff161561105b576040517f08c379a00000000000000000000000000000000000000000000000000000000081526004016110529061255d565b60405180910390fd5b600160003373ffffffffffffffffffffffffffffffffffffffff1673ffffffffffffffffffffffffffffffffffffffff168152602001908152602001600020506000600160003373ffffffffffffffffffffffffffffffffffffffff1673ffffffffffffffffffffffffffffffffffffffff1681526020019081526020016000209050338160000160006101000a81548173ffffffffffffffffffffffffffffffffffffffff021916908373ffffffffffffffffffffffffffffffffffffffff160217905550858160010181905550848160020181905550838160030181905550828160040181905550600060068054905090506006600181600181540180825580915050039060005260206000209050506006818154811061118157611180611ff2565b5b906000526020600020906007020191506000808154809291906111a3906123a2565b91905055507fce13692684e33e4bf4ea2b09d52f7758c89ad8674f98a2a67e0210c8798e01f4338888886040516111dd949392919061257d565b60405180910390a1600192505050949350505050565b600080600260003373ffffffffffffffffffffffffffffffffffffffff1673ffffffffffffffffffffffffffffffffffffffff1681526020019081526020016000206002015490503373ffffffffffffffffffffffffffffffffffffffff166108fc829081150290604051600060405180830381858888f19350505050158015611281573d6000803e3d6000fd5b506000600260003373ffffffffffffffffffffffffffffffffffffffff1673ffffffffffffffffffffffffffffffffffffffff16815260200190815260200160002060020181905550600191505090565b600060066000815481106112e9576112e8611ff2565b5b906000526020600020906007020160010154905090565b6006818154811061131057600080fd5b90600052602060002090600702016000915090508060000160009054906101000a900473ffffffffffffffffffffffffffffffffffffffff16908060010154908060020154908060030154908060040154908060050160009054906101000a900460ff16905086565b60036020528060005260406000206000915090505481565b6000600160003373ffffffffffffffffffffffffffffffffffffffff1673ffffffffffffffffffffffffffffffffffffffff16815260200190815260200160002060060184815481106113e7576113e6611ff2565b5b906000526020600020906008020160040160009054906101000a900460ff1615611446576040517f08c379a000000000000000000000000000000000000000000000000000000000815260040161143d90612634565b60405180910390fd5b6000600160003373ffffffffffffffffffffffffffffffffffffffff1673ffffffffffffffffffffffffffffffffffffffff168152602001908152602001600020600601805490509050600160003373ffffffffffffffffffffffffffffffffffffffff1673ffffffffffffffffffffffffffffffffffffffff168152602001908152602001600020600601600181600181540180825580915050039060005260206000209050506000600160003373ffffffffffffffffffffffffffffffffffffffff1673ffffffffffffffffffffffffffffffffffffffff168152602001908152602001600020600601828154811061154457611543611ff2565b5b90600052602060002090600802019050818160000181905550848160010190805190602001906115759291906119ab565b50338160020160006101000a81548173ffffffffffffffffffffffffffffffffffffffff021916908373ffffffffffffffffffffffffffffffffffffffff16021790555083816003018190555060018160040160006101000a81548160ff021916908315150217905550600081600501819055503373ffffffffffffffffffffffffffffffffffffffff167f89a06c535e8dd2ed5a8dde860643470a6cc4e0037590329ae58f9ff38450626083876040516116319291906126cb565b60405180910390a26001925050509392505050565b6000600160008373ffffffffffffffffffffffffffffffffffffffff1673ffffffffffffffffffffffffffffffffffffffff168152602001908152602001600020600601838154811061169c5761169b611ff2565b5b906000526020600020906008020160040160009054906101000a900460ff166116fa576040517f08c379a00000000000000000000000000000000000000000000000000000000081526004016116f19061207e565b60405180910390fd5b6000341161173d576040517f08c379a000000000000000000000000000000000000000000000000000000000815260040161173490612747565b60405180910390fd5b6000600160008473ffffffffffffffffffffffffffffffffffffffff1673ffffffffffffffffffffffffffffffffffffffff168152602001908152602001600020600601848154811061179357611792611ff2565b5b90600052602060002090600802019050806003015434146117e9576040517f08c379a00000000000000000000000000000000000000000000000000000000081526004016117e0906127b3565b60405180910390fd5b34600160008573ffffffffffffffffffffffffffffffffffffffff1673ffffffffffffffffffffffffffffffffffffffff168152602001908152602001600020600401600082825461183b9190612283565b9250508190555060018160060160003373ffffffffffffffffffffffffffffffffffffffff1673ffffffffffffffffffffffffffffffffffffffff16815260200190815260200160002060006101000a81548160ff0219169083151502179055508273ffffffffffffffffffffffffffffffffffffffff163373ffffffffffffffffffffffffffffffffffffffff167fa0c86f96b37b8910ef2b7b57ff4bff1ddd188f15350d038d317563ceebcb5d3c8360030154426040516118ff9291906127d3565b60405180910390a3600191505092915050565b6004818154811061192257600080fd5b90600052602060002090600602016000915090508060000154908060010154908060020160009054906101000a900473ffffffffffffffffffffffffffffffffffffffff16908060030160009054906101000a900473ffffffffffffffffffffffffffffffffffffffff16908060040154908060050160009054906101000a900460ff16905086565b8280546119b79061282b565b90600052602060002090601f0160209004810192826119d95760008555611a20565b82601f106119f257805160ff1916838001178555611a20565b82800160010185558215611a20579182015b82811115611a1f578251825591602001919060010190611a04565b5b509050611a2d9190611a31565b5090565b5b80821115611a4a576000816000905550600101611a32565b5090565b6000604051905090565b600080fd5b600080fd5b600073ffffffffffffffffffffffffffffffffffffffff82169050919050565b6000611a8d82611a62565b9050919050565b611a9d81611a82565b8114611aa857600080fd5b50565b600081359050611aba81611a94565b92915050565b600060208284031215611ad657611ad5611a58565b5b6000611ae484828501611aab565b91505092915050565b611af681611a82565b82525050565b6000819050919050565b611b0f81611afc565b82525050565b60008115159050919050565b611b2a81611b15565b82525050565b600060c082019050611b456000830189611aed565b611b526020830188611b06565b611b5f6040830187611b06565b611b6c6060830186611b06565b611b796080830185611b06565b611b8660a0830184611b21565b979650505050505050565b6000602082019050611ba66000830184611b06565b92915050565b611bb581611afc565b8114611bc057600080fd5b50565b600081359050611bd281611bac565b92915050565b600080600060608486031215611bf157611bf0611a58565b5b6000611bff86828701611bc3565b9350506020611c1086828701611aab565b9250506040611c2186828701611bc3565b9150509250925092565b6000602082019050611c406000830184611b21565b92915050565b600080600060608486031215611c5f57611c5e611a58565b5b6000611c6d86828701611bc3565b9350506020611c7e86828701611bc3565b9250506040611c8f86828701611aab565b9150509250925092565b600060208284031215611caf57611cae611a58565b5b6000611cbd84828501611bc3565b91505092915050565b600060e082019050611cdb600083018a611aed565b611ce86020830189611aed565b611cf56040830188611aed565b611d026060830187611aed565b611d0f6080830186611b06565b611d1c60a0830185611b06565b611d2960c0830184611b21565b98975050505050505050565b60008060008060808587031215611d4f57611d4e611a58565b5b6000611d5d87828801611bc3565b9450506020611d6e87828801611bc3565b9350506040611d7f87828801611bc3565b9250506060611d9087828801611bc3565b91505092959194509250565b600080fd5b600080fd5b6000601f19601f8301169050919050565b7f4e487b7100000000000000000000000000000000000000000000000000000000600052604160045260246000fd5b611def82611da6565b810181811067ffffffffffffffff82111715611e0e57611e0d611db7565b5b80604052505050565b6000611e21611a4e565b9050611e2d8282611de6565b919050565b600067ffffffffffffffff821115611e4d57611e4c611db7565b5b611e5682611da6565b9050602081019050919050565b82818337600083830152505050565b6000611e85611e8084611e32565b611e17565b905082815260208101848484011115611ea157611ea0611da1565b5b611eac848285611e63565b509392505050565b600082601f830112611ec957611ec8611d9c565b5b8135611ed9848260208601611e72565b91505092915050565b600080600060608486031215611efb57611efa611a58565b5b6000611f0986828701611bc3565b935050602084013567ffffffffffffffff811115611f2a57611f29611a5d565b5b611f3686828701611eb4565b9250506040611f4786828701611bc3565b9150509250925092565b60008060408385031215611f6857611f67611a58565b5b6000611f7685828601611bc3565b9250506020611f8785828601611aab565b9150509250929050565b600060c082019050611fa66000830189611b06565b611fb36020830188611b06565b611fc06040830187611aed565b611fcd6060830186611aed565b611fda6080830185611b06565b611fe760a0830184611b21565b979650505050505050565b7f4e487b7100000000000000000000000000000000000000000000000000000000600052603260045260246000fd5b600082825260208201905092915050565b7f50726f6475637420646f6573206e6f7420657869737421000000000000000000600082015250565b6000612068601783612021565b915061207382612032565b602082019050919050565b600060208201905081810360008301526120978161205b565b9050919050565b7f4e6f207265636f726473206f6620627579657220627579696e6720746869732060008201527f70726f647563742e000000000000000000000000000000000000000000000000602082015250565b60006120fa602883612021565b91506121058261209e565b604082019050919050565b60006020820190508181036000830152612129816120ed565b9050919050565b7f4e6f207265636f726473206f66206275796572206c656176696e67207265766960008201527f65772e0000000000000000000000000000000000000000000000000000000000602082015250565b600061218c602383612021565b915061219782612130565b604082019050919050565b600060208201905081810360008301526121bb8161217f565b9050919050565b7f506c656173652073656e6420657861637420616d6f756e74206f66207265776160008201527f7264210000000000000000000000000000000000000000000000000000000000602082015250565b600061221e602383612021565b9150612229826121c2565b604082019050919050565b6000602082019050818103600083015261224d81612211565b9050919050565b7f4e487b7100000000000000000000000000000000000000000000000000000000600052601160045260246000fd5b600061228e82611afc565b915061229983611afc565b9250827fffffffffffffffffffffffffffffffffffffffffffffffffffffffffffffffff038211156122ce576122cd612254565b5b828201905092915050565b60006060820190506122ee6000830186611b06565b6122fb6020830185611b06565b6123086040830184611b06565b949350505050565b7f4e6f207265636f726473206f6620627579657220627579696e6720746869732060008201527f70726f64756374206f72206c656176696e67207265766965772e000000000000602082015250565b600061236c603a83612021565b915061237782612310565b604082019050919050565b6000602082019050818103600083015261239b8161235f565b9050919050565b60006123ad82611afc565b91507fffffffffffffffffffffffffffffffffffffffffffffffffffffffffffffffff8214156123e0576123df612254565b5b600182019050919050565b60006080820190506124006000830187611b06565b61240d6020830186611b06565b61241a6040830185611b06565b6124276060830184611b06565b95945050505050565b7f4275796572207769746820746869732062757965724164647265737320616c7260008201527f6561647920657869737473210000000000000000000000000000000000000000602082015250565b600061248c602c83612021565b915061249782612430565b604082019050919050565b600060208201905081810360008301526124bb8161247f565b9050919050565b60006040820190506124d76000830185611aed565b6124e46020830184611b06565b9392505050565b7f53656c6c6572207769746820746869732073656c6c657241646472657373206160008201527f6c72656164792065786973747321000000000000000000000000000000000000602082015250565b6000612547602e83612021565b9150612552826124eb565b604082019050919050565b600060208201905081810360008301526125768161253a565b9050919050565b60006080820190506125926000830187611aed565b61259f6020830186611b06565b6125ac6040830185611b06565b6125b96060830184611b06565b95945050505050565b7f50726f64756374207769746820746869732070726f64756374494420616c726560008201527f6164792075706c6f61646564206265666f726521000000000000000000000000602082015250565b600061261e603483612021565b9150612629826125c2565b604082019050919050565b6000602082019050818103600083015261264d81612611565b9050919050565b600081519050919050565b60005b8381101561267d578082015181840152602081019050612662565b8381111561268c576000848401525b50505050565b600061269d82612654565b6126a78185612021565b93506126b781856020860161265f565b6126c081611da6565b840191505092915050565b60006040820190506126e06000830185611b06565b81810360208301526126f28184612692565b90509392505050565b7f4574686572732063616e6e6f74206265207a65726f2100000000000000000000600082015250565b6000612731601683612021565b915061273c826126fb565b602082019050919050565b6000602082019050818103600083015261276081612724565b9050919050565b7f506c656173652073656e6420657861637420616d6f756e742100000000000000600082015250565b600061279d601983612021565b91506127a882612767565b602082019050919050565b600060208201905081810360008301526127cc81612790565b9050919050565b60006040820190506127e86000830185611b06565b6127f56020830184611b06565b9392505050565b7f4e487b7100000000000000000000000000000000000000000000000000000000600052602260045260246000fd5b6000600282049050600182168061284357607f821691505b60208210811415612857576128566127fc565b5b5091905056fea26469706673582212207eff312257ca55929517ffccb2fe8d468f3bf9d96210879b02b64f4e2ff6847764736f6c63430008090033",
  "linkReferences": {},
  "deployedLinkReferences": {}
}